{
  "_format": "hh-sol-artifact-1",
  "contractName": "Transactions",
  "sourceName": "contracts/Transactions.sol",
  "abi": [
    {
      "anonymous": false,
      "inputs": [
        {
          "indexed": false,
          "internalType": "address",
          "name": "addressFrom",
          "type": "address"
        },
        {
          "indexed": false,
          "internalType": "address",
          "name": "addressTo",
          "type": "address"
        },
        {
          "indexed": false,
          "internalType": "uint256",
          "name": "amount",
          "type": "uint256"
        },
        {
          "indexed": false,
          "internalType": "string",
          "name": "message",
          "type": "string"
        },
        {
          "indexed": false,
          "internalType": "uint256",
          "name": "timestamp",
          "type": "uint256"
        }
      ],
      "name": "Transfer",
      "type": "event"
    },
    {
      "inputs": [
        {
          "internalType": "address payable",
          "name": "addressTo",
          "type": "address"
        },
        {
          "internalType": "uint256",
          "name": "amount",
          "type": "uint256"
        },
        {
          "internalType": "string",
          "name": "message",
          "type": "string"
        }
      ],
      "name": "addToBlockchain",
      "outputs": [],
      "stateMutability": "nonpayable",
      "type": "function"
    },
    {
      "inputs": [],
      "name": "getAllTransactions",
      "outputs": [
        {
          "components": [
            {
              "internalType": "address",
              "name": "addressFrom",
              "type": "address"
            },
            {
              "internalType": "address",
              "name": "addressTo",
              "type": "address"
            },
            {
              "internalType": "uint256",
              "name": "amount",
              "type": "uint256"
            },
            {
              "internalType": "string",
              "name": "message",
              "type": "string"
            },
            {
              "internalType": "uint256",
              "name": "timestamp",
              "type": "uint256"
            }
          ],
          "internalType": "struct Transactions.TransferStruct[]",
          "name": "",
          "type": "tuple[]"
        }
      ],
      "stateMutability": "view",
      "type": "function"
    },
    {
      "inputs": [],
      "name": "getTransactionCount",
      "outputs": [
        {
          "internalType": "uint256",
          "name": "",
          "type": "uint256"
        }
      ],
      "stateMutability": "view",
      "type": "function"
    }
  ],
  "bytecode": "0x608060405234801561001057600080fd5b50610d0e806100206000396000f3fe608060405234801561001057600080fd5b50600436106100415760003560e01c806327506f53146100465780632e7700f014610064578063eb12da4a14610082575b600080fd5b61004e61009e565b60405161005b919061060d565b60405180910390f35b61006c61024f565b604051610079919061063e565b60405180910390f35b61009c6004803603810190610097919061080c565b610258565b005b60606001805480602002602001604051908101604052809291908181526020016000905b8282101561024657838290600052602060002090600502016040518060a00160405290816000820160009054906101000a900473ffffffffffffffffffffffffffffffffffffffff1673ffffffffffffffffffffffffffffffffffffffff1673ffffffffffffffffffffffffffffffffffffffff1681526020016001820160009054906101000a900473ffffffffffffffffffffffffffffffffffffffff1673ffffffffffffffffffffffffffffffffffffffff1673ffffffffffffffffffffffffffffffffffffffff168152602001600282015481526020016003820180546101ab906108aa565b80601f01602080910402602001604051908101604052809291908181526020018280546101d7906108aa565b80156102245780601f106101f957610100808354040283529160200191610224565b820191906000526020600020905b81548152906001019060200180831161020757829003601f168201915b50505050508152602001600482015481525050815260200190600101906100c2565b50505050905090565b60008054905090565b60008081548092919061026a9061090a565b919050555060016040518060a001604052803373ffffffffffffffffffffffffffffffffffffffff1681526020018573ffffffffffffffffffffffffffffffffffffffff16815260200184815260200183815260200142815250908060018154018082558091505060019003906000526020600020906005020160009091909190915060008201518160000160006101000a81548173ffffffffffffffffffffffffffffffffffffffff021916908373ffffffffffffffffffffffffffffffffffffffff16021790555060208201518160010160006101000a81548173ffffffffffffffffffffffffffffffffffffffff021916908373ffffffffffffffffffffffffffffffffffffffff16021790555060408201518160020155606082015181600301908161039a9190610afe565b506080820151816004015550507fc4b32d7ff75a51e487f3cbb5d3202f2efecca1f4c2b987e0039c1d3220b48a8333848484426040516103de959493929190610c7e565b60405180910390a1505050565b600081519050919050565b600082825260208201905092915050565b6000819050602082019050919050565b600073ffffffffffffffffffffffffffffffffffffffff82169050919050565b600061044282610417565b9050919050565b61045281610437565b82525050565b6000819050919050565b61046b81610458565b82525050565b600081519050919050565b600082825260208201905092915050565b60005b838110156104ab578082015181840152602081019050610490565b60008484015250505050565b6000601f19601f8301169050919050565b60006104d382610471565b6104dd818561047c565b93506104ed81856020860161048d565b6104f6816104b7565b840191505092915050565b600060a0830160008301516105196000860182610449565b50602083015161052c6020860182610449565b50604083015161053f6040860182610462565b506060830151848203606086015261055782826104c8565b915050608083015161056c6080860182610462565b508091505092915050565b60006105838383610501565b905092915050565b6000602082019050919050565b60006105a3826103eb565b6105ad81856103f6565b9350836020820285016105bf85610407565b8060005b858110156105fb57848403895281516105dc8582610577565b94506105e78361058b565b925060208a019950506001810190506105c3565b50829750879550505050505092915050565b600060208201905081810360008301526106278184610598565b905092915050565b61063881610458565b82525050565b6000602082019050610653600083018461062f565b92915050565b6000604051905090565b600080fd5b600080fd5b600061067882610417565b9050919050565b6106888161066d565b811461069357600080fd5b50565b6000813590506106a58161067f565b92915050565b6106b481610458565b81146106bf57600080fd5b50565b6000813590506106d1816106ab565b92915050565b600080fd5b600080fd5b7f4e487b7100000000000000000000000000000000000000000000000000000000600052604160045260246000fd5b610719826104b7565b810181811067ffffffffffffffff82111715610738576107376106e1565b5b80604052505050565b600061074b610659565b90506107578282610710565b919050565b600067ffffffffffffffff821115610777576107766106e1565b5b610780826104b7565b9050602081019050919050565b82818337600083830152505050565b60006107af6107aa8461075c565b610741565b9050828152602081018484840111156107cb576107ca6106dc565b5b6107d684828561078d565b509392505050565b600082601f8301126107f3576107f26106d7565b5b813561080384826020860161079c565b91505092915050565b60008060006060848603121561082557610824610663565b5b600061083386828701610696565b9350506020610844868287016106c2565b925050604084013567ffffffffffffffff81111561086557610864610668565b5b610871868287016107de565b9150509250925092565b7f4e487b7100000000000000000000000000000000000000000000000000000000600052602260045260246000fd5b600060028204905060018216806108c257607f821691505b6020821081036108d5576108d461087b565b5b50919050565b7f4e487b7100000000000000000000000000000000000000000000000000000000600052601160045260246000fd5b600061091582610458565b91507fffffffffffffffffffffffffffffffffffffffffffffffffffffffffffffffff8203610947576109466108db565b5b600182019050919050565b60008190508160005260206000209050919050565b60006020601f8301049050919050565b600082821b905092915050565b6000600883026109b47fffffffffffffffffffffffffffffffffffffffffffffffffffffffffffffffff82610977565b6109be8683610977565b95508019841693508086168417925050509392505050565b6000819050919050565b60006109fb6109f66109f184610458565b6109d6565b610458565b9050919050565b6000819050919050565b610a15836109e0565b610a29610a2182610a02565b848454610984565b825550505050565b600090565b610a3e610a31565b610a49818484610a0c565b505050565b5b81811015610a6d57610a62600082610a36565b600181019050610a4f565b5050565b601f821115610ab257610a8381610952565b610a8c84610967565b81016020851015610a9b578190505b610aaf610aa785610967565b830182610a4e565b50505b505050565b600082821c905092915050565b6000610ad560001984600802610ab7565b1980831691505092915050565b6000610aee8383610ac4565b9150826002028217905092915050565b610b0782610471565b67ffffffffffffffff811115610b2057610b1f6106e1565b5b610b2a82546108aa565b610b35828285610a71565b600060209050601f831160018114610b685760008415610b56578287015190505b610b608582610ae2565b865550610bc8565b601f198416610b7686610952565b60005b82811015610b9e57848901518255600182019150602085019450602081019050610b79565b86831015610bbb5784890151610bb7601f891682610ac4565b8355505b6001600288020188555050505b505050505050565b610bd981610437565b82525050565b6000610bfa610bf5610bf084610417565b6109d6565b610417565b9050919050565b6000610c0c82610bdf565b9050919050565b6000610c1e82610c01565b9050919050565b610c2e81610c13565b82525050565b600082825260208201905092915050565b6000610c5082610471565b610c5a8185610c34565b9350610c6a81856020860161048d565b610c73816104b7565b840191505092915050565b600060a082019050610c936000830188610bd0565b610ca06020830187610c25565b610cad604083018661062f565b8181036060830152610cbf8185610c45565b9050610cce608083018461062f565b969550505050505056fea2646970667358221220a11f5550befb240818f1d58f1a3a9a29944106cd36507368044d26b4ba32984464736f6c63430008130033",
  "linkReferences": {},
  "deployedLinkReferences": {}
}